{
  "contractName": "Event",
  "abi": [
    {
      "constant": true,
      "inputs": [
        {
          "name": "",
          "type": "uint32"
        }
      ],
      "name": "events",
      "outputs": [
        {
          "name": "eventId",
          "type": "uint32"
        },
        {
          "name": "eventHost",
          "type": "address"
        },
        {
          "name": "eventName",
          "type": "string"
        },
        {
          "name": "noOfDaysToRegsiter",
          "type": "uint32"
        },
        {
          "name": "maxMembers",
          "type": "uint32"
        }
      ],
      "payable": false,
      "stateMutability": "view",
      "type": "function"
    },
    {
      "constant": false,
      "inputs": [
        {
          "name": "selectedEventId",
          "type": "uint32"
        }
      ],
      "name": "joinEvent",
      "outputs": [
        {
          "name": "",
          "type": "uint32"
        }
      ],
      "payable": false,
      "stateMutability": "nonpayable",
      "type": "function"
    },
    {
      "constant": false,
      "inputs": [
        {
          "name": "eventName",
          "type": "string"
        },
        {
          "name": "noOfdays",
          "type": "uint32"
        },
        {
          "name": "maxMembers",
          "type": "uint32"
        }
      ],
      "name": "createEvent",
      "outputs": [
        {
          "name": "",
          "type": "uint32"
        }
      ],
      "payable": false,
      "stateMutability": "nonpayable",
      "type": "function"
    }
  ],
  "bytecode": "0x606060405260008060006101000a81548163ffffffff021916908363ffffffff160217905550341561003057600080fd5b61083c8061003f6000396000f300606060405260043610610057576000357c0100000000000000000000000000000000000000000000000000000000900463ffffffff1680631472d53f1461005c57806353fce90a14610187578063b8093e2a146101d0575b600080fd5b341561006757600080fd5b610083600480803563ffffffff1690602001909190505061026b565b604051808663ffffffff1663ffffffff1681526020018573ffffffffffffffffffffffffffffffffffffffff1673ffffffffffffffffffffffffffffffffffffffff168152602001806020018463ffffffff1663ffffffff1681526020018363ffffffff1663ffffffff1681526020018281038252858181546001816001161561010002031660029004815260200191508054600181600116156101000203166002900480156101745780601f1061014957610100808354040283529160200191610174565b820191906000526020600020905b81548152906001019060200180831161015757829003601f168201915b5050965050505050505060405180910390f35b341561019257600080fd5b6101ae600480803563ffffffff169060200190919050506102f0565b604051808263ffffffff1663ffffffff16815260200191505060405180910390f35b34156101db57600080fd5b610249600480803590602001908201803590602001908080601f0160208091040260200160405190810160405280939291908181526020018383808284378201915050505050509190803563ffffffff1690602001909190803563ffffffff169060200190919050506104f9565b604051808263ffffffff1663ffffffff16815260200191505060405180910390f35b60016020528060005260406000206000915090508060000160009054906101000a900463ffffffff16908060000160049054906101000a900473ffffffffffffffffffffffffffffffffffffffff169080600101908060020160009054906101000a900463ffffffff16908060020160049054906101000a900463ffffffff16905085565b600080600090505b600160008463ffffffff1663ffffffff168152602001908152602001600020600301805490508110156103c3573373ffffffffffffffffffffffffffffffffffffffff16600160008563ffffffff1663ffffffff1681526020019081526020016000206003018281548110151561036b57fe5b906000526020600020900160009054906101000a900473ffffffffffffffffffffffffffffffffffffffff1673ffffffffffffffffffffffffffffffffffffffff161415156103b657fe5b80806001019150506102f8565b60008363ffffffff16101580156103f757506000809054906101000a900463ffffffff1663ffffffff168363ffffffff1611155b151561040257600080fd5b600160008463ffffffff1663ffffffff16815260200190815260200160002060020160049054906101000a900463ffffffff1663ffffffff16600160008563ffffffff1663ffffffff1681526020019081526020016000206003018054905010151561046d57600080fd5b600160008463ffffffff1663ffffffff16815260200190815260200160002060030180548060010182816104a1919061073f565b9160005260206000209001600033909190916101000a81548173ffffffffffffffffffffffffffffffffffffffff021916908373ffffffffffffffffffffffffffffffffffffffff1602179055505082915050919050565b600060016000808282829054906101000a900463ffffffff160192506101000a81548163ffffffff021916908363ffffffff1602179055506000809054906101000a900463ffffffff16600160008060009054906101000a900463ffffffff1663ffffffff1663ffffffff16815260200190815260200160002060000160006101000a81548163ffffffff021916908363ffffffff16021790555033600160008060009054906101000a900463ffffffff1663ffffffff1663ffffffff16815260200190815260200160002060000160046101000a81548173ffffffffffffffffffffffffffffffffffffffff021916908373ffffffffffffffffffffffffffffffffffffffff16021790555083600160008060009054906101000a900463ffffffff1663ffffffff1663ffffffff168152602001908152602001600020600101908051906020019061064d92919061076b565b5082600160008060009054906101000a900463ffffffff1663ffffffff1663ffffffff16815260200190815260200160002060020160006101000a81548163ffffffff021916908363ffffffff16021790555081600160008060009054906101000a900463ffffffff1663ffffffff1663ffffffff16815260200190815260200160002060020160046101000a81548163ffffffff021916908363ffffffff160217905550600160008060009054906101000a900463ffffffff1663ffffffff1663ffffffff16815260200190815260200160002060000160009054906101000a900463ffffffff1690509392505050565b8154818355818115116107665781836000526020600020918201910161076591906107eb565b5b505050565b828054600181600116156101000203166002900490600052602060002090601f016020900481019282601f106107ac57805160ff19168380011785556107da565b828001600101855582156107da579182015b828111156107d95782518255916020019190600101906107be565b5b5090506107e791906107eb565b5090565b61080d91905b808211156108095760008160009055506001016107f1565b5090565b905600a165627a7a723058205c4e25dcbe183aae7e6cba8b448685926fa54493748da5a78cf53fd58bb85b5c0029",
  "source": "pragma solidity ^0.4.4;\r\n\r\ncontract Event {\r\n    \r\n    uint32 currentMaxNumOfEvents=0;\r\n    struct eventDetail{\r\n    uint32  eventId;\r\n    address  eventHost;\r\n    string  eventName;\r\n    uint32  noOfDaysToRegsiter;\r\n    uint32  maxMembers;\r\n    address[]  memberAddress;\r\n    }\r\n    mapping(uint32 => eventDetail) public events;\r\n    function joinEvent(uint32 selectedEventId)public returns (uint32){\r\n         for (uint i = 0; i<events[selectedEventId].memberAddress.length; i++) {\r\n             assert(events[selectedEventId].memberAddress[i]==msg.sender);\r\n        }\r\n        require(selectedEventId>=0&&selectedEventId<=currentMaxNumOfEvents);\r\n        require(events[selectedEventId].memberAddress.length < events[selectedEventId].maxMembers);\r\n        events[selectedEventId].memberAddress.push(msg.sender);\r\n        return selectedEventId;\r\n    }\r\n    function createEvent(string eventName,uint32 noOfdays,uint32 maxMembers) public returns (uint32){\r\n        currentMaxNumOfEvents += 1;\r\n        events[currentMaxNumOfEvents].eventId= currentMaxNumOfEvents;\r\n        events[currentMaxNumOfEvents].eventHost =msg.sender;\r\n        events[currentMaxNumOfEvents].eventName = eventName;\r\n        events[currentMaxNumOfEvents].noOfDaysToRegsiter = noOfdays;\r\n        events[currentMaxNumOfEvents].maxMembers = maxMembers;\r\n        return events[currentMaxNumOfEvents].eventId;\r\n\r\n        \r\n    }\r\n}",
  "sourcePath": "N:\\KISS\\Blockchain\\ethevents\\contracts\\Event.sol",
  "compiler": {
    "name": "solc",
    "version": "0.4.18+commit.9cf6e910.Emscripten.clang"
  },
  "schemaVersion": "1.0.1",
  "updatedAt": "2017-11-03T15:42:56.521Z"
}